:1000000071C53EC1189518951895189518951895AD
:100010001895189518951895189540C11895189524
:10002000189518954DC171C175C1189532C11895B3
:1000300018951895925857533939533030533031F9
:100040005330325330335330345330350046004050
:03005000010000AC
:10005400F89412BD01BD20BDFA9AF99A789431E062
:1000640033BF889530E033BF0895C1D5D801C901A5
:10007400442EF999FECFFB9A6624641460F4772425
:10008400FC01E60DF71D208177248D01060D171D57
:10009400DFDF6394F2CFFB98E8E0B6C5980132BD88
:1000A40021BDF89A00B50895A4D52801C901B42F3B
:1000B400F999FECFA0E0AB1770F42A2F30E08C0141
:1000C400020F131FEBDF2A2F30E0F201E20FF31FC0
:1000D4000083A395F0CFE6E099C587D5C80149010F
:1000E40055246624A0E1B7E2082F092B49F420E344
:1000F400062D10E0F401E00FF11F2083639421C06A
:10010400772405E07016E8F4AD018C01FED4402E8E
:10011400442011F4552071F0242D2063062D10E0A5
:10012400F401E00FF11F2083AD018C01EED4CA016C
:10013400639453944AE050E08D01E7D4D80173945A
:10014400E0CF20E0062D10E0F401E00FF11F208342
:10015400062DEAE057C550D5A801022E90E02224CE
:1001640000E060E06015F8F570E0FA01E60FF71FB3
:100174003081A32F1A2E20E0283098F5A027817013
:100184003A2F317030FB80F930E030F9992311F0C7
:1001940010E801C010E0A02F882321F038E1A32744
:1001A40010E801C010E091703A2F317030FB90F9E3
:1001B40030E030F9A695A12B0A2F222311F4A12DAA
:1001C40001C0A22D11703A2F317030FB10F930E0CC
:1001D40030F9A695112311F0A06831E02A2E239559
:1001E400CBCF6395BFCFE3E014C5FDD43801522EC5
:1001F4008824AA2480E090E0A1E0B0E0BB24F301CD
:10020400EA0DFB1D0081051511F0A394F7CFF3014E
:1002140000810D3209F483944424042D10E0EA2D66
:10022400F0E09924E819F90931970E171F073CF4F7
:100234004AE050E08D0161D4D8014394EECF482CBC
:100244004A14A0F4042D10E0F301E00FF11F008123
:1002540010E00F701070AD0150D4800F911F4AE070
:1002640050E08D016AD4D8014394EACF882019F074
:100274009195819590408C01ECE0C2C41A930A9345
:100284001FB700E00DBB1FBF0991199118950A9380
:100294000FB70FBF099118951A930A931FB700E07F
:1002A400009381000AB5002311F4A89503C001E06E
:1002B400009340011FBF099119911895FA93EA938D
:1002C4006A935A934A933A932A931A930A936FB769
:1002D40001E411E0A8010BB5202F3091C600022FD4
:1002E40010E0FA01E00FF11F31830BB503950BBD4C
:1002F4006FBF099119912991399149915991699146
:10030400E991F99118950A930FB70FBF09911895C0
:100314000A930FB70FBF09911895102F00E024E33B
:1003240030E0B90140E0443158F450E0FB01E40FFF
:10033400F51F2491211711F401E008954395F3CF9B
:100344000895409164004860409364005A9A5B9A0F
:1003540048E24093C10030E0321768F4F80140816C
:100364004093C6000F5F1F4F41E043BF889540E0B4
:1003740043BF3395F1CF48E44093C10041E043BF0C
:10038400889540E043BF5A985B9840E94093C10088
:1003940040916400477F409364000895F894A895C1
:1003A400009160000861009360000FE0009360001A
:1003B400789408955A985B9800E90093C10006E088
:1003C4000093C2000FE810E01093C5000093C4002E
:1003D400089500916F00016000936F0000E00093A6
:1003E400800000E00093810000E010E0109385009D
:1003F40000938400089500E400937C0006E80093D1
:100404007A0000E000937B000895F5D301E411E045
:10041400D80141E020E530E08D010F5F1F4F44DE3D
:1004240011960C911197003A20F011960C911197A6
:1004340001C00FEF0EBB00E00ABD48E020E730E04A
:100444008D01035C1F4F30DEE4E0E2C30FEF05B91A
:1004540000E004B90FEF08B900E007B907EF0BB9E2
:100464000CE10AB908950FEF08B900E007B908953F
:1004740000E008B900E007B9089500E005BF00E80E
:1004840000BF00917A000F7700937A0005EE009385
:1004940064000FE300937E0003E000937F00E8DF35
:1004A400089500B7006800BFD1DF93DFA4DFE5DF64
:1004B400ACDF80DF78940895A0D3902F80E000E033
:1004C40010E020E420937C0020917C00292B2093D1
:1004D4007C0080E08530B8F420917A002064209379
:1004E4007A0020917A00322F34FFFBCF20917A00DA
:1004F400206120937A002091780030917900020FD6
:10050400131F8395E7CF45E050E0FFD2E2E082C3BA
:100514006ED301E411E02801A0E06624772480E092
:1005240090E05C9802E10A95F1F700000091640004
:100534000E7F0093640000917A00006800937A00B3
:1005440092DFA0E0A83008F065C0B0E0F201EA0F45
:10055400FB1FFD960081002309F45AC00A2FACDF6B
:100564003801830120E030E048EE53E060E070E0C1
:10057400F7D240E054E04619570960E070E010D328
:10058400C801853C04E0900760F0813906E09007DB
:1005940040F401E0B0E0F201EA0FFB1FFD96008396
:1005A40037C08E3E02E0900760F0853C04E090077F
:1005B40040F403E0B0E0F201EA0FFB1FFD96008374
:1005C40027C0813E01E0900760F08F3E02E0900773
:1005D40040F402E0B0E0F201EA0FFB1FFD96008355
:1005E40017C0813E01E0900740F405E0B0E0F2015D
:1005F400EA0FFB1FFD9600830BC0813906E09007CC
:1006040038F004E0B0E0F201EA0FFB1FFD9600832E
:10061400A39598CF5C9A00917A000F7700937A00A3
:100624000091640001600093640022DFE8E0ECC202
:10063400E2D2229701E411E0D80124E08D010E5F9B
:100644001F4FD3DDC801082F08830881003A50F0FA
:100654000881003B38F441E09E0100E510E005DD2F
:1006640008810EBB2296E4E0D3C2C0D2802E80E083
:1006740090E0552401E411E0D801442407E310E09C
:10068400380122E0082F10E0FD01E00FF11F278F51
:10069400839502E9801609F044C03ADF90E098306F
:1006A400F8F5092F10E0FD01E00FF11FFD96108110
:1006B40003E0109F402C042D10E0F301E00FF11F24
:1006C4002491082F10E0FD01E00FF11F278F83957F
:1006D400042D10E0F301E00FF11F319624913197BE
:1006E400082F10E0FD01E00FF11F278F8395042DE3
:1006F40010E0F301E00FF11F329624913297082F96
:1007040010E0FD01E00FF11F278F83952AE3082FE6
:1007140010E0FD01E00FF11F278F83959395BFCF64
:100724008A9523E0082F10E0FD01E00FF11F278FC9
:100734008395282F8D01015E1F4F0DDD502E082F4C
:1007440010E0FD01E00FF11F578E839500916400C6
:100754000D7F00936400282F8D01015E1F4FF1DD92
:1007640000E00ABDE9E04FC244D22297C801D90192
:10077400442441E09C018E0197DC55249D01240D05
:10078400351D088110E0A9DC400E042D2296E6E018
:100794003DC231D290E001E411E0D80180E0843020
:1007A400C0F4082F10E0000F111FFD01E00FF11F2E
:1007B4000281902F903311F0913349F4292F205363
:1007C400082F10E0FD01E00FF11FFD9620838395B3
:1007D400E6CF44E09D01235C3F4F00E710E045DC99
:1007E400E4E016C204D23801A0E080E090E001E425
:1007F40011E0280144E020E730E08201035C1F4F50
:1008040053DC80E090E0843000E09007ECF4182F93
:1008140002E0109FA02DF201E80FF91FFD96008160
:10082400002311F400E301C001E3B0E0F301EA0F97
:10083400FB1F0083A3950AE3B0E0F301EA0FFB1F5B
:100844000083A3950196DFCFAA950A2FE8E0DCC1C7
:10085400D0D1A02F442401E411E0C80100E00093AA
:10086400810000E00093C1000091640002600093E5
:10087400640002E05524FC01E40DF51D078F439448
:100884000A2F075571F00A95A9F4D2DE55249C016C
:10089400240D351D215E3F4F00E510E065DF400E5D
:1008A40009C077DF55248C01040D151D015E1F4F0F
:1008B40099DF400E03E05524FC01E40DF51D078F7C
:1008C4004394242D8C01015E1F4F45DCB02F552429
:1008D400FC01E40DF51DB78F4394009164000D7F76
:1008E40000936400242D8C01015E1F4F2ADDE6E095
:1008F4008DC181D1B02FA12F01E411E0C8010EB345
:10090400FC01078FFC01A0A322E08C01015E1F4FB4
:1009140018DDA83511F0A73589F40FE317E5109316
:1009240085000093840004E00093810001E00093BB
:100934006F0004E00ABD00E00BBD10C000E00093AE
:10094400C1005A985B9A00916400026000936400AD
:100954000A2F8BDE00E00ABD00E00BBDE4E058C1C5
:1009640001E411E0D8019DDD19DD00E00BBDA8957F
:100974000AB5005079F00A9509F452C00A9509F4B1
:1009840063C0025009F46DC0085009F49FC00450BC
:1009940061F1EECFA8950BB5013091F400E000931E
:1009A40081000FEF17E2109385000093840001E0AB
:1009B4000093810001E000936F0000E10ABDD8CFED
:1009C400F894A89578940FE317E5109385000093A5
:1009D400840004E00093810001E000936F0001E0D3
:1009E40003BF889500E003BFC3CF0BB5023030F0DE
:1009F40000E00093810001E00ABDBACF00914001FC
:100A0400013040F000E00093400100E00ABD00E046
:100A14000BBDAECF01E003BF889500E003BFA8CFB4
:100A2400FD0101810F3F29F0FD0101811EB3011772
:100A340031F4FD0102810C9302E00ABD99CF00E07C
:100A44000ABD00E00BBD94CF0C9167DC002321F0BC
:100A54001C910EB34EDF8CCF00E00ABD00E00BBD4D
:100A640087CF0BB5013000F1FD010181013089F41C
:100A74000BB510E0FD01E00FF11F0081043049F4D3
:100A840000E0009381000AB508600ABD5A985B9A99
:100A94006FCF0BB50E3140F000E00093810000E011
:100AA4000ABD00E00BBD64CF00914001013040F06D
:100AB40000E00093400100E00BBD00E00ABD58CF08
:100AC40001E003BF889500E003BF52CF0C91C0DE64
:100AD40000E00BBD00E00ABD4BCF00008895FECFBF
:100AE4000FE30DBF01E00EBFC0E2D1E09AD00023B6
:100AF40009F0A7D035DFF1DFF0CF149F102D059F4B
:100B0400100D049F002D110D089500241124EFE011
:100B1400001F111F001C111C0416150610F0041AE6
:100B2400150AEA95AAF7001F111FA0010095109558
:100B340008955195419550400895FF27552312F487
:100B4400F160F7DF112312F4F09506D0DEDFF0FD3B
:100B540003D0F1FDEECF089511950195104008954D
:100B64002224349F302D259F300D169F300D079F72
:100B7400300D249F202D310D159F200D311D069F12
:100B8400200D311D149F102D210D321D059F100DB8
:100B9400211D321D049F002D110D221D321D0895AB
:100BA400002411241001E0E2EA9592F0001F111FC5
:100BB400221F331F001C111C221C331C0416150693
:100BC4002606370688F3041A150A260A370AECCFD4
:100BD400001F111F221F331FA001B10100951095A2
:100BE400209530950895BA92AA929A928A927A920E
:100BF4006A925A924A92BA93AA939A938A930895BC
:100C0400BB84AA84998488847F806E805D804C80B4
:100C1400BB81AA8199818881F0E0EC0FFD1FEF016F
:100C2400089501E0089520E006D0E9F7089525919C
:100C340002D0E9F708952D9301501040202F212B65
:100C440008958DE490E0FC0105911491FC01329625
:100C5400A591B491FC01349625913491422F432BF4
:100C640019F0F901E4DF01C0DEDF069610E08335F8
:060C7400910748F308950A
:00000001FF
:00000001FF
