:10000000B0C536C118951895189518951895189576
:100010001895189518951895189538C1189518952C
:100020001895189540C163C167C118952AC11895E4
:100030001895189592585764004001F80C8A00A44E
:03004000010000BC
:10004400F89412BD01BD20BDFA9AF99A789431E072
:1000540033BF889530E033BF089508D6D801C9016D
:10006400442EF999FECFFB9A6624641460F4772435
:10007400FC01E60DF71D208177248D01060D171D67
:10008400DFDF6394F2CFFB98E8E0FDC5980132BD51
:1000940021BDF89A00B50895EBD52801C901B42F04
:1000A400F999FECFA0E0AB1770F42A2F30E08C0151
:1000B400020F131FEBDF2A2F30E0F201E20FF31FD0
:1000C4000083A395F0CFE6E0E0C5CED5C801490191
:1000D40055246624A0E1B7E2082F092B49F420E354
:1000E400062D10E0F401E00FF11F2083639421C07A
:1000F400772405E07016E8F4AD018C0145D5402E57
:10010400442011F4552071F0242D2063062D10E0B5
:10011400F401E00FF11F2083AD018C0135D5CA0134
:10012400639453944AE050E08D012ED5D801739422
:10013400E0CF20E0062D10E0F401E00FF11F208352
:10014400062DEAE09EC597D5A801022E90E0222450
:1001540000E060E06015F8F570E0FA01E60FF71FC3
:100164003081A32F1A2E20E0283098F5A027817023
:100174003A2F317030FB80F930E030F9992311F0D7
:1001840010E801C010E0A02F882321F038E1A32754
:1001940010E801C010E091703A2F317030FB90F9F3
:1001A40030E030F9A695A12B0A2F222311F4A12DBA
:1001B40001C0A22D11703A2F317030FB10F930E0DC
:1001C40030F9A695112311F0A06831E02A2E239569
:1001D400CBCF6395BFCFE3E05BC544D53801522E46
:1001E4008824AA2480E090E0A1E0B0E0BB24F301DD
:1001F400EA0DFB1D0081051511F0A394F7CFF3015F
:1002040000810D3209F483944424042D10E0EA2D76
:10021400F0E09924E819F90931970E171F073CF407
:100224004AE050E08D01A8D4D8014394EECF482C85
:100234004A14A0F4042D10E0F301E00FF11F008133
:1002440010E00F701070AD0197D4800F911F4AE039
:1002540050E08D01B1D4D8014394EACF882019F03D
:100264009195819590408C01ECE009C51A930A930D
:100274001FB700E00DBB1FBF0991199118950A9390
:100284000FB70FBF099118951A930A931FB701E08E
:100294000093A40100E0009381001FBF099119910C
:1002A4001895BA93AA93FA93EA933A932A931A93D2
:1002B4000A933FB705EA11E0F8010091C600202F28
:1002C4000681102F1395168310E0DF01A00FB11FD4
:1002D40017962C9317973FBF09911991299139913A
:1002E400E991F991A991B99118950A930FB70FBFA4
:1002F400099118950A930FB70FBF09911895102FFC
:1003040000E024E330E0B90140E0443158F450E027
:10031400FB01E40FF51F2491211711F401E0089566
:100324004395F3CF08955B9A5A9A4AEF53EB4150A1
:100334005040E9F700C0000048E24093C10030E0BB
:10034400321768F4F80140814093C6000F5F1F4FD5
:1003540041E043BF889540E043BF3395F1CF48E483
:100364004093C10041E043BF889540E043BF5B98A0
:100374005A9840E94093C10008955B985A9800E95F
:100384000093C10006E00093C20007E110E010935F
:10039400C5000093C400089500916F0001600093AC
:1003A4006F0000E00093800000E00093810000E013
:1003B40010E01093850000938400089500E40093F6
:1003C4007C0004E800937A0000E000937B00089529
:1003D40000E005BF00E800BF05EE009364000FE3F2
:1003E40000937E0003E000937F00089543D405EA60
:1003F40011E0D80141E020E530E08D01095F1F4F95
:100404004BDE17960C911797003A20F017960C9133
:10041400179701C00FEF0EBB00E014960C931497CE
:1004240044E020E730E08D0101581F4F35DEE4E061
:100434002EC40FEF05B906E004B90FEF08B900E0C8
:1004440007B907EF0BB90CEC0AB908950FEF08B917
:1004540000E007B9089500EF08B900E007B908956E
:1004640000B7006800BFE5DF88DF96DFA7DFB0DFF5
:10047400BDDF789407ED1FE925E0015010402040CE
:10048400E1F700C000000895F7D3902F80E000E06A
:1004940010E020E420937C0020917C00292B209301
:1004A4007C0080E08530B8F420917A0020642093A9
:1004B4007A0020917A00322F34FFFBCF20917A000A
:1004C400206120937A002091780030917900020F06
:1004D400131F8395E7CF45E050E056D3E2E0D9C33C
:1004E400102F105039F01A9539F01A9539F01A95E1
:1004F40039F00895299808952A9808955E980895E2
:100504005F980895102F105039F01A9539F01A9504
:1005140039F01A9539F00895299A08952A9A089578
:100524005E9A08955F9A0895A1D305EA11E028011F
:1005340080E066247724A0E0B0E0009164000E7FA0
:100544000093640083DF80E0843008F076C090E09C
:10055400F201E80FF91FE158FF4F0081002309F46D
:100564006AC0082FBDDF0AEF13EB01501040E9F712
:1005740000C00000082F88DF3801082FC3DF830183
:1005840020E030E048EE53E060E070E028D340E043
:1005940054E04619570960E070E041D3D801A53C06
:1005A40004E0B00768F0A13906E0B00748F401E0C0
:1005B40090E0F201E80FF91FE158FF4F00833BC0C0
:1005C400AE3E02E0B00768F0A53C04E0B00748F492
:1005D40003E090E0F201E80FF91FE158FF4F0083B8
:1005E4002AC0A13E01E0B00768F0AF3E02E0B007C8
:1005F40048F402E090E0F201E80FF91FE158FF4FE0
:10060400008319C0A13E01E0B00748F405E090E082
:10061400F201E80FF91FE158FF4F00830CC0A13924
:1006240006E0B00740F004E090E0F201E80FF91FA3
:10063400E158FF4F0083839587CF009164000160E8
:100644000093640008DFE8E01EC314D3229705EA90
:1006540011E0D80124E08D01085F1F4FBEDDC80101
:10066400082F08830881003A50F00881003B38F4D1
:1006740041E09E0100E510E0F0DC08810EBB22960B
:10068400E4E005C3A80100E000E010E0F901E00F98
:10069400F11F1081112361F010E0F901E00FF11F47
:1006A400608110E0FA01E00FF11F60830395EDCF44
:1006B40000E010E0F901E00FF11F1081112361F057
:1006C40010E0F901E00FF11F608110E0FA01E00F82
:1006D400F11F60830395EDCF0895C9D2602E80E0A9
:1006E400552490E0442405EA11E0D80122E0082FC3
:1006F40010E0FD01E00FF11F27A7839502E96016C2
:1007040049F512DF90E0943020F5092F10E0FD0147
:10071400E00FF11FE158FF4F408150E00AE010E084
:100724002BD220E431E0200F311F482F50E08D01FF
:10073400040F151F015D1F4FA5DF502E850D2AE301
:10074400082F10E0FD01E00FF11F27A78395939573
:10075400DACF8A9523E0082F10E0FD01E00FF11FA6
:1007640027A78395282F8D01015D1F4FECDC402EB8
:10077400082F10E0FD01E00FF11F47A683950091BB
:1007840064000D7F00936400282F8D01015D1F4FCD
:10079400CADD00E0FD010483E7E076C269D2229756
:1007A400C801D901442441E09C018E0175DC552423
:1007B4009D01240D351D088110E087DC400E042DB9
:1007C4002296E6E062C256D290E005EA11E0D80132
:1007D40080E08430C8F4082F10E0000F111FFD01E1
:1007E400E00FF11F0085902F903311F0913351F4F5
:1007F400292F2053082F10E0FD01E00FF11FE158CD
:10080400FF4F20838395E5CF44E09D0121583F4F5E
:1008140000E710E022DCE4E03AC228D23801A0E08C
:1008240080E090E005EA11E0280144E020E730E0B0
:10083400820101581F4F30DC80E090E0843000E0FA
:100844009007F4F4182F02E0109FA02DF201E80F96
:10085400F91FE158FF4F0081002311F400E301C0A8
:1008640001E3B0E0F301EA0FFB1F0083A3950AE361
:10087400B0E0F301EA0FFB1F0083A3950196DECFDE
:10088400AA950A2FE8E0FFC1F3D1A02F442405EA7A
:1008940011E0C80100E00093810000E00093C10072
:1008A4000091640002600093640002E05524FC019E
:1008B400E40DF51D07A743940A2F075571F00A9517
:1008C400A9F4C3DE55249C01240D351D215D3F4F41
:1008D40000E510E063DF400E09C075DF55248C018C
:1008E400040D151D015D1F4F98DF400E03E05524D4
:1008F400FC01E40DF51D07A74394242D8C01015D33
:100904001F4F21DCB02F5524FC01E40DF51DB7A7C2
:100914004394009164000D7F00936400242D8C01A6
:10092400015D1F4F00DDE6E0B0C1A4D1902F812FFF
:1009340005EA11E0D8010EB3FD0107A7FD0180AB64
:1009440022E08D01015D1F4FEEDC883511F0873503
:1009540099F400E81FE8109385000093840003E0F5
:100964000093810001E000936F0004E0FD01048323
:1009740000E0FD01068312C000E00093C1005B9813
:100984005A9A00916400026000936400082FA5DE67
:1009940000E0FD01048300E0FD010683E4E077C18B
:1009A4005FDD05EA11E0D80100E0FD01068380E087
:1009B40090E08A3000E0900744F4082F005DFD01C8
:1009C400E80FF91F07A70196F4CF0EB3FD0107A79F
:1009D4002AE08D01015D1F4FA6DCFD01048100505A
:1009E40079F00A9509F448C00A9509F45DC00250EB
:1009F40009F46BC0085009F4A5C00450F1F0EDCF20
:100A0400FD010681013099F400E00093810000E0CB
:100A14001CED109385000093840001E00093810095
:100A240001E000936F0000E1FD010483D6CF01E0F3
:100A340003BF889500E003BFD0CFFD0106810230DB
:100A440038F000E00093810001E0FD010483C5CF8C
:100A54000091A401013050F000E00093A40100E0F3
:100A6400FD01048300E0FD010683B7CF01E003BF6D
:100A7400889500E003BFB1CFFD0107810F3F29F046
:100A8400FD0107811EB3011741F4FD010085FD013D
:100A9400058302E0FD010483A0CF00E0FD0104838F
:100AA40000E0FD01068399CFFD01058128DC0023C8
:100AB40029F0FD0115810EB338DF8FCF00E0FD0171
:100AC400048300E0FD01068388CFFD010681013027
:100AD40028F1FD010781013099F4FD01068110E040
:100AE400FD01E00FF11F0681043051F400E0009392
:100AF4008100FD010481086004835B985A9A6DCFDC
:100B0400FD0106810E3150F000E00093810000E009
:100B1400FD01048300E0FD0106835FCF0091A40181
:100B2400013050F000E00093A40100E0FD010683D1
:100B340000E0FD01048351CF01E003BF889500E08C
:100B440003BF4BCFFD0105819FDE00E0FD0106835D
:100B540000E0FD01048341CF00008895FECF0FE340
:100B64000DBF01E00EBFC0E2D1E09AD0002309F02E
:100B7400A7D016DFF1DFF0CF149F102D059F100DC5
:100B8400049F002D110D089500241124EFE0001F8F
:100B9400111F001C111C0416150610F0041A150A66
:100BA400EA95AAF7001F111FA0010095109508955A
:100BB4005195419550400895FF27552312F4F16053
:100BC400F7DF112312F4F09506D0DEDFF0FD03D039
:100BD400F1FDEECF0895119501951040089522245A
:100BE400349F302D259F300D169F300D079F300DFB
:100BF400249F202D310D159F200D311D069F200DA2
:100C0400311D149F102D210D321D059F100D211D26
:100C1400321D049F002D110D221D321D0895002444
:100C240011241001E0E2EA9592F0001F111F221F27
:100C3400331F001C111C221C331C04161506260627
:100C4400370688F3041A150A260A370AECCF001F60
:100C5400111F221F331FA001B1010095109520958B
:100C640030950895BA92AA929A928A927A926A9246
:100C74005A924A92BA93AA939A938A930895BB84F8
:100C8400AA84998488847F806E805D804C80BB8137
:100C9400AA8199818881F0E0EC0FFD1FEF0108958E
:100CA40001E0089520E006D0E9F70895259102D0E7
:100CB400E9F708952D9301501040202F212B08951A
:100CC40087E390E0FC0105911491FC013296A59113
:100CD400B491FC01349625913491422F432B19F0A1
:100CE400F901E4DF01C0DEDF069610E083349107EA
:100CF40048F30895533939000000000000005330D0
:100D040030000000000000005330310000000000FB
:100D14000000533032000000000000005330330064
:100D24000000000000005330340000000000000008
:100D340053303500000000000000000000000000F7
:100D4400000000000000000000000000000000009F
:080D5400000000000000000097
:00000001FF
:00000001FF
