:10000000A0C53EC11895189518951895189518957E
:100010001895189518951895189540C11895189524
:10002000189518954DC171C175C1189532C11895B3
:1000300018951895925857533939533030533031F9
:100040005330325330335330345330350042004054
:03005000010000AC
:10005400F89412BD01BD20BDFA9AF99A789431E062
:1000640033BF889530E033BF0895F0D5D801C90176
:10007400442EF999FECFFB9A6624641460F4772425
:10008400FC01E60DF71D208177248D01060D171D57
:10009400DFDF6394F2CFFB98E8E0E5C5980132BD59
:1000A40021BDF89A00B50895D3D52801C901B42F0C
:1000B400F999FECFA0E0AB1770F42A2F30E08C0141
:1000C400020F131FEBDF2A2F30E0F201E20FF31FC0
:1000D4000083A395F0CFE6E0C8C5B6D5C8014901B1
:1000E40055246624A0E1B7E2082F092B49F420E344
:1000F400062D10E0F401E00FF11F2083639421C06A
:10010400772405E07016E8F4AD018C012DD5402E5E
:10011400442011F4552071F0242D2063062D10E0A5
:10012400F401E00FF11F2083AD018C011DD5CA013C
:10013400639453944AE050E08D0116D5D80173942A
:10014400E0CF20E0062D10E0F401E00FF11F208342
:10015400062DEAE086C57FD5A801022E90E0222470
:1001640000E060E06015F8F570E0FA01E60FF71FB3
:100174003081A32F1A2E20E0283098F5A027817013
:100184003A2F317030FB80F930E030F9992311F0C7
:1001940010E801C010E0A02F882321F038E1A32744
:1001A40010E801C010E091703A2F317030FB90F9E3
:1001B40030E030F9A695A12B0A2F222311F4A12DAA
:1001C40001C0A22D11703A2F317030FB10F930E0CC
:1001D40030F9A695112311F0A06831E02A2E239559
:1001E400CBCF6395BFCFE3E043C52CD53801522E66
:1001F4008824AA2480E090E0A1E0B0E0BB24F301CD
:10020400EA0DFB1D0081051511F0A394F7CFF3014E
:1002140000810D3209F483944424042D10E0EA2D66
:10022400F0E09924E819F90931970E171F073CF4F7
:100234004AE050E08D0190D4D8014394EECF482C8D
:100244004A14A0F4042D10E0F301E00FF11F008123
:1002540010E00F701070AD017FD4800F911F4AE041
:1002640050E08D0199D4D8014394EACF882019F045
:100274009195819590408C01ECE0F1C41A930A9316
:100284001FB700E00DBB1FBF0991199118950A9380
:100294000FB70FBF099118951A930A931FB700E07F
:1002A400009381000AB5002311F4A89503C001E06E
:1002B400009340011FBF099119911895FA93EA938D
:1002C4006A935A934A933A932A931A930A936FB769
:1002D40001E411E0A8010BB5202F3091C600022FD4
:1002E40010E0FA01E00FF11F31830BB503950BBD4C
:1002F4006FBF099119912991399149915991699146
:10030400E991F99118950A930FB70FBF09911895C0
:100314000A930FB70FBF09911895102F00E024E33B
:1003240030E0B90140E0443158F450E0FB01E40FFF
:10033400F51F2491211711F401E008954395F3CF9B
:100344000895409164004860409364005B9A5A9A0F
:1003540048E24093C10030E0321768F4F80140816C
:100364004093C6000F5F1F4F41E043BF889540E0B4
:1003740043BF3395F1CF48E44093C10041E043BF0C
:10038400889540E043BF5B985A9840E94093C10088
:1003940040916400477F409364000895F894A895C1
:1003A400009160000861009360000FE0009360001A
:1003B400789408955B985A9800E90093C10006E088
:1003C4000093C20007E110E01093C5000093C4003D
:1003D400089500916F00016000936F0000E00093A6
:1003E400800000E00093810000E010E0109385009D
:1003F40000938400089500E400937C0004E80093D3
:100404007A0000E000937B00089524D401E411E015
:10041400D80141E020E530E08D010F5F1F4F44DE3D
:1004240011960C911197003A20F011960C911197A6
:1004340001C00FEF0EBB00E00ABD44E020E730E04E
:100444008D01035C1F4F30DEE4E011C40FEF05B9EA
:1004540006E004B90FEF08B900E007B907EF0BB9DC
:100464000CEC0AB908950FEF08B900E007B9089534
:1004740000EF08B900E007B9089500E005BF00E8FF
:1004840000BF00917A000F7700937A0005EE009385
:1004940064000FE300937E0003E000937F00E8DF35
:1004A400089500B7006800BFD1DF93DFA4DFE5DF64
:1004B400ACDF80DF78940895CFD3902F80E000E004
:1004C40010E020E420937C0020917C00292B2093D1
:1004D4007C0080E08530B8F420917A002064209379
:1004E4007A0020917A00322F34FFFBCF20917A00DA
:1004F400206120937A002091780030917900020FD6
:10050400131F8395E7CF45E050E02ED3E2E0B1C35B
:10051400102F105039F01A9539F01A9539F01A95B0
:1005240039F00895299808952A9808955E980895B1
:100534005F980895102F105039F01A9539F01A95D4
:1005440039F01A9539F00895299A08952A9A089548
:100554005E9A08955F9A089579D301E411E0280121
:1005640080E066247724A0E0B0E0009164000E7F70
:100574000093640000917A00006800937A0073DFAE
:1005840080E0843008F06CC090E0F201E80FF91FBD
:10059400FD960081002309F461C0082FB9DF03E050
:1005A4000A95F1F7082F88DF3801082FC3DF83018C
:1005B40020E030E048EE53E060E070E000D340E03B
:1005C40054E04619570960E070E019D3D801A53CFE
:1005D40004E0B00760F0A13906E0B00740F401E0A0
:1005E40090E0F201E80FF91FFD96008337C0AE3E9C
:1005F40002E0B00760F0A53C04E0B00740F403E07B
:1006040090E0F201E80FF91FFD96008327C0A13E98
:1006140001E0B00760F0AF3E02E0B00740F402E052
:1006240090E0F201E80FF91FFD96008317C0A13E88
:1006340001E0B00740F405E090E0F201E80FF91F93
:10064400FD9600830BC0A13906E0B00738F004E042
:1006540090E0F201E80FF91FFD960083839591CF96
:1006640000917A000F7700937A0000916400016092
:1006740000936400FDDEE8E0F6C2ECD2229701E4C8
:1006840011E0D80124E08D010E5F1F4FAEDDC801DB
:10069400082F08830881003A50F00881003B38F4A1
:1006A40041E09E0100E510E0E0DC08810EBB2296EB
:1006B400E4E0DDC2CAD2802E80E090E0552401E45B
:1006C40011E0D801442407E310E0380122E0082FA8
:1006D40010E0FD01E00FF11F278F839502E98016DA
:1006E40009F044C039DF90E09430F8F5092F10E0A8
:1006F400FD01E00FF11FFD96108103E0109F402CD7
:10070400042D10E0F301E00FF11F2491082F10E0F5
:10071400FD01E00FF11F278F8395042D10E0F301F5
:10072400E00FF11F319624913197082F10E0FD015D
:10073400E00FF11F278F8395042D10E0F301E00FE4
:10074400F11F329624913297082F10E0FD01E00F3B
:10075400F11F278F83952AE3082F10E0FD01E00F96
:10076400F11F278F83959395BFCF8A9523E0082F98
:1007740010E0FD01E00FF11F278F8395282F8D01D5
:10078400015E1F4FE8DC502E082F10E0FD01E00F42
:10079400F11F578E8395009164000D7F00936400D0
:1007A400282F8D01015E1F4FCCDD00E00ABDE9E07A
:1007B40059C24ED22297C801D901442441E09C0178
:1007C4008E0172DC55249D01240D351D088110E035
:1007D40084DC400E042D2296E6E047C23BD290E032
:1007E40001E411E0D80180E08430C0F4082F10E067
:1007F400000F111FFD01E00FF11F0281902F9033B4
:1008040011F0913349F4292F2053082F10E0FD01F2
:10081400E00FF11FFD9620838395E6CF44E09D0110
:10082400235C3F4F00E710E020DCE4E020C20ED25E
:100834003801A0E080E090E001E411E0280144E008
:1008440020E730E08201035C1F4F2EDC80E090E063
:10085400843000E09007ECF4182F02E0109FA02DE4
:10086400F201E80FF91FFD960081002311F400E363
:1008740001C001E3B0E0F301EA0FFB1F0083A3957D
:100884000AE3B0E0F301EA0FFB1F0083A39501968E
:10089400DFCFAA950A2FE8E0E6C1DAD1A02F4424DD
:1008A40001E411E0C80100E00093810000E000933E
:1008B400C1000091640002600093640002E05524CA
:1008C400FC01E40DF51D078F43940A2F075571F0C1
:1008D4000A95A9F4D2DE55249C01240D351D215E10
:1008E4003F4F00E510E065DF400E09C077DF552477
:1008F4008C01040D151D015E1F4F99DF400E03E0AE
:100904005524FC01E40DF51D078F4394242D8C011F
:10091400015E1F4F20DCB02F5524FC01E40DF51DB2
:10092400B78F4394009164000D7F00936400242DDD
:100934008C01015E1F4F05DDE6E097C18BD1B02F1E
:10094400A12F01E411E0C8010EB3FC01078FFC01E3
:10095400A0A322E08C01015E1F4FF3DCA83511F047
:10096400A73589F400E81FE81093850000938400FC
:1009740003E00093810001E000936F0004E00ABDEE
:1009840000E00BBD10C000E00093C1005B985A9AD0
:10099400009164000260009364000A2F8BDE00E083
:1009A4000ABD00E00BBDE4E062C101E411E0D8013E
:1009B40078DDF4DC00E00BBDA8950AB5005079F0B1
:1009C4000A9509F45CC00A9509F46DC0025009F453
:1009D40077C0085009F4A9C00450B1F1EECFA8952E
:1009E4000BB5013091F400E00093810000E01CEDB0
:1009F400109385000093840001E00093810001E0DE
:100A040000936F0000E10ABDD8CFF894A8957894BC
:100A140000E81FE8109385000093840003E000932E
:100A2400810001E000936F0000E605BF00E405BF0C
:100A340005B70F7D05BF00000000000001E003BF03
:100A4400889500E003BFB9CF0BB5023030F000E069
:100A54000093810001E00ABDB0CF00914001013054
:100A640040F000E00093400100E00ABD00E00BBD4F
:100A7400A4CF01E003BF889500E003BF9ECFFD0132
:100A840001810F3F29F0FD0101811EB3011731F4EB
:100A9400FD0102810C9302E00ABD8FCF00E00ABD84
:100AA40000E00BBD8ACF0C9138DC002321F01C91AF
:100AB4000EB344DF82CF00E00ABD00E00BBD7DCF62
:100AC4000BB5013000F1FD010181013089F40BB552
:100AD40010E0FD01E00FF11F0081043049F400E053
:100AE400009381000AB508600ABD5B985A9A65CFE5
:100AF4000BB50E3140F000E00093810000E00ABD28
:100B040000E00BBD5ACF00914001013040F000E0FD
:100B14000093400100E00BBD00E00ABD4ECF01E0B0
:100B240003BF889500E003BF48CF0C91B6DE00E018
:100B34000BBD00E00ABD41CF00008895FECF0FE356
:100B44000DBF01E00EBFC0E2D1E09AD0002309F04E
:100B5400A7D02BDFF1DFF0CF149F102D059F100DD0
:100B6400049F002D110D089500241124EFE0001FAF
:100B7400111F001C111C0416150610F0041A150A86
:100B8400EA95AAF7001F111FA0010095109508957A
:100B94005195419550400895FF27552312F4F16073
:100BA400F7DF112312F4F09506D0DEDFF0FD03D059
:100BB400F1FDEECF0895119501951040089522247A
:100BC400349F302D259F300D169F300D079F300D1B
:100BD400249F202D310D159F200D311D069F200DC2
:100BE400311D149F102D210D321D059F100D211D47
:100BF400321D049F002D110D221D321D0895002465
:100C040011241001E0E2EA9592F0001F111F221F47
:100C1400331F001C111C221C331C04161506260647
:100C2400370688F3041A150A260A370AECCF001F80
:100C3400111F221F331FA001B101009510952095AB
:100C440030950895BA92AA929A928A927A926A9266
:100C54005A924A92BA93AA939A938A930895BB8418
:100C6400AA84998488847F806E805D804C80BB8157
:100C7400AA8199818881F0E0EC0FFD1FEF010895AE
:100C840001E0089520E006D0E9F70895259102D007
:100C9400E9F708952D9301501040202F212B08953A
:100CA4008DE490E0FC0105911491FC013296A5912C
:100CB400B491FC01349625913491422F432B19F0C1
:100CC400F901E4DF01C0DEDF069610E08335910709
:040CD40048F3089544
:00000001FF
:00000001FF
